{
    "_format": "hh-sol-artifact-1",
    "contractName": "SmartBet",
    "sourceName": "contracts/SmartBet.sol",
    "abi": [
        {
            "inputs": [],
            "stateMutability": "nonpayable",
            "type": "constructor"
        },
        {
            "inputs": [],
            "name": "getBalance",
            "outputs": [
                {
                    "internalType": "uint256",
                    "name": "",
                    "type": "uint256"
                }
            ],
            "stateMutability": "view",
            "type": "function"
        },
        {
            "inputs": [],
            "name": "getPlayers",
            "outputs": [
                {
                    "internalType": "address payable[]",
                    "name": "",
                    "type": "address[]"
                }
            ],
            "stateMutability": "view",
            "type": "function"
        },
        {
            "inputs": [],
            "name": "manager",
            "outputs": [
                {
                    "internalType": "address",
                    "name": "",
                    "type": "address"
                }
            ],
            "stateMutability": "view",
            "type": "function"
        },
        {
            "inputs": [],
            "name": "pickWinner",
            "outputs": [],
            "stateMutability": "nonpayable",
            "type": "function"
        },
        {
            "inputs": [
                {
                    "internalType": "bool",
                    "name": "choice",
                    "type": "bool"
                }
            ],
            "name": "placeBet",
            "outputs": [],
            "stateMutability": "payable",
            "type": "function"
        },
        {
            "inputs": [
                {
                    "internalType": "address",
                    "name": "",
                    "type": "address"
                }
            ],
            "name": "playerBets",
            "outputs": [
                {
                    "internalType": "uint256",
                    "name": "",
                    "type": "uint256"
                }
            ],
            "stateMutability": "view",
            "type": "function"
        },
        {
            "inputs": [
                {
                    "internalType": "address",
                    "name": "",
                    "type": "address"
                }
            ],
            "name": "playerChoices",
            "outputs": [
                {
                    "internalType": "bool",
                    "name": "",
                    "type": "bool"
                }
            ],
            "stateMutability": "view",
            "type": "function"
        },
        {
            "inputs": [
                {
                    "internalType": "uint256",
                    "name": "",
                    "type": "uint256"
                }
            ],
            "name": "players",
            "outputs": [
                {
                    "internalType": "address payable",
                    "name": "",
                    "type": "address"
                }
            ],
            "stateMutability": "view",
            "type": "function"
        }
    ],
    "bytecode": "0x608060405234801561001057600080fd5b50336000806101000a81548173ffffffffffffffffffffffffffffffffffffffff021916908373ffffffffffffffffffffffffffffffffffffffff160217905550610e6e806100606000396000f3fe60806040526004361061007b5760003560e01c80638b5b9ccc1161004e5780638b5b9ccc1461010957806391b3f40e14610134578063c7aa327b14610171578063f71d96cb146101ae5761007b565b8063096a37781461008057806312065fe01461009c578063481c6a75146100c75780635d495aea146100f2575b600080fd5b61009a6004803603810190610095919061076a565b6101eb565b005b3480156100a857600080fd5b506100b161032f565b6040516100be91906107b0565b60405180910390f35b3480156100d357600080fd5b506100dc610337565b6040516100e9919061080c565b60405180910390f35b3480156100fe57600080fd5b5061010761035b565b005b34801561011557600080fd5b5061011e6105a0565b60405161012b91906108f7565b60405180910390f35b34801561014057600080fd5b5061015b60048036038101906101569190610945565b61062e565b6040516101689190610981565b60405180910390f35b34801561017d57600080fd5b5061019860048036038101906101939190610945565b61064e565b6040516101a591906107b0565b60405180910390f35b3480156101ba57600080fd5b506101d560048036038101906101d091906109c8565b610666565b6040516101e29190610a04565b60405180910390f35b6000341161022e576040517f08c379a000000000000000000000000000000000000000000000000000000000815260040161022590610aa2565b60405180910390fd5b6001339080600181540180825580915050600190039060005260206000200160009091909190916101000a81548173ffffffffffffffffffffffffffffffffffffffff021916908373ffffffffffffffffffffffffffffffffffffffff16021790555080600260003373ffffffffffffffffffffffffffffffffffffffff1673ffffffffffffffffffffffffffffffffffffffff16815260200190815260200160002060006101000a81548160ff02191690831515021790555034600360003373ffffffffffffffffffffffffffffffffffffffff1673ffffffffffffffffffffffffffffffffffffffff1681526020019081526020016000208190555050565b600047905090565b60008054906101000a900473ffffffffffffffffffffffffffffffffffffffff1681565b60008054906101000a900473ffffffffffffffffffffffffffffffffffffffff1673ffffffffffffffffffffffffffffffffffffffff163373ffffffffffffffffffffffffffffffffffffffff16146103e9576040517f08c379a00000000000000000000000000000000000000000000000000000000081526004016103e090610b34565b60405180910390fd5b600060018054905011610431576040517f08c379a000000000000000000000000000000000000000000000000000000000815260040161042890610ba0565b60405180910390fd5b600061043b6106a5565b905060005b60018054905081101561058e5760006001828154811061046357610462610bc0565b5b9060005260206000200160009054906101000a900473ffffffffffffffffffffffffffffffffffffffff1690506000600260008373ffffffffffffffffffffffffffffffffffffffff1673ffffffffffffffffffffffffffffffffffffffff16815260200190815260200160002060009054906101000a900460ff1690508315158115150361057f578173ffffffffffffffffffffffffffffffffffffffff166108fc6002600360008673ffffffffffffffffffffffffffffffffffffffff1673ffffffffffffffffffffffffffffffffffffffff168152602001908152602001600020546105529190610c1e565b9081150290604051600060405180830381858888f1935050505015801561057d573d6000803e3d6000fd5b505b50508080600101915050610440565b506001600061059d91906106ef565b50565b6060600180548060200260200160405190810160405280929190818152602001828054801561062457602002820191906000526020600020905b8160009054906101000a900473ffffffffffffffffffffffffffffffffffffffff1673ffffffffffffffffffffffffffffffffffffffff16815260200190600101908083116105da575b5050505050905090565b60026020528060005260406000206000915054906101000a900460ff1681565b60036020528060005260406000206000915090505481565b6001818154811061067657600080fd5b906000526020600020016000915054906101000a900473ffffffffffffffffffffffffffffffffffffffff1681565b600080444260016040516020016106be93929190610d9f565b6040516020818303038152906040528051906020012060001c905060006002826106e89190610e07565b1491505090565b508054600082559060005260206000209081019061070d9190610710565b50565b5b80821115610729576000816000905550600101610711565b5090565b600080fd5b60008115159050919050565b61074781610732565b811461075257600080fd5b50565b6000813590506107648161073e565b92915050565b6000602082840312156107805761077f61072d565b5b600061078e84828501610755565b91505092915050565b6000819050919050565b6107aa81610797565b82525050565b60006020820190506107c560008301846107a1565b92915050565b600073ffffffffffffffffffffffffffffffffffffffff82169050919050565b60006107f6826107cb565b9050919050565b610806816107eb565b82525050565b600060208201905061082160008301846107fd565b92915050565b600081519050919050565b600082825260208201905092915050565b6000819050602082019050919050565b600061085e826107cb565b9050919050565b61086e81610853565b82525050565b60006108808383610865565b60208301905092915050565b6000602082019050919050565b60006108a482610827565b6108ae8185610832565b93506108b983610843565b8060005b838110156108ea5781516108d18882610874565b97506108dc8361088c565b9250506001810190506108bd565b5085935050505092915050565b600060208201905081810360008301526109118184610899565b905092915050565b610922816107eb565b811461092d57600080fd5b50565b60008135905061093f81610919565b92915050565b60006020828403121561095b5761095a61072d565b5b600061096984828501610930565b91505092915050565b61097b81610732565b82525050565b60006020820190506109966000830184610972565b92915050565b6109a581610797565b81146109b057600080fd5b50565b6000813590506109c28161099c565b92915050565b6000602082840312156109de576109dd61072d565b5b60006109ec848285016109b3565b91505092915050565b6109fe81610853565b82525050565b6000602082019050610a1960008301846109f5565b92915050565b600082825260208201905092915050565b7f42657420616d6f756e74206d7573742062652067726561746572207468616e2060008201527f3000000000000000000000000000000000000000000000000000000000000000602082015250565b6000610a8c602183610a1f565b9150610a9782610a30565b604082019050919050565b60006020820190508181036000830152610abb81610a7f565b9050919050565b7f596f7520617265206e6f7420746865206f776e6572206f66207468697320636f60008201527f6e74726163740000000000000000000000000000000000000000000000000000602082015250565b6000610b1e602683610a1f565b9150610b2982610ac2565b604082019050919050565b60006020820190508181036000830152610b4d81610b11565b9050919050565b7f4e656564206174206c65617374206f6e6520706c617965722e00000000000000600082015250565b6000610b8a601983610a1f565b9150610b9582610b54565b602082019050919050565b60006020820190508181036000830152610bb981610b7d565b9050919050565b7f4e487b7100000000000000000000000000000000000000000000000000000000600052603260045260246000fd5b7f4e487b7100000000000000000000000000000000000000000000000000000000600052601160045260246000fd5b6000610c2982610797565b9150610c3483610797565b9250828202610c4281610797565b91508282048414831517610c5957610c58610bef565b5b5092915050565b6000819050919050565b610c7b610c7682610797565b610c60565b82525050565b600081549050919050565b600081905092915050565b60008190508160005260206000209050919050565b610cb581610853565b82525050565b6000610cc78383610cac565b60208301905092915050565b60008160001c9050919050565b600073ffffffffffffffffffffffffffffffffffffffff82169050919050565b6000610d13610d0e83610cd3565b610ce0565b9050919050565b6000610d268254610d00565b9050919050565b6000600182019050919050565b6000610d4582610c81565b610d4f8185610c8c565b9350610d5a83610c97565b8060005b83811015610d9257610d6f82610d1a565b610d798882610cbb565b9750610d8483610d2d565b925050600181019050610d5e565b5085935050505092915050565b6000610dab8286610c6a565b602082019150610dbb8285610c6a565b602082019150610dcb8284610d3a565b9150819050949350505050565b7f4e487b7100000000000000000000000000000000000000000000000000000000600052601260045260246000fd5b6000610e1282610797565b9150610e1d83610797565b925082610e2d57610e2c610dd8565b5b82820690509291505056fea26469706673582212202d68a55e39efb2e017f0d1fb53f5c16d16354d47528584f0efef871afb41771764736f6c63430008180033",
    "linkReferences": {},
    "deployedLinkReferences": {}
}